:100000000C943D010C945A010C945A010C945A0121
:100010000C945A010C9497010C945A010C945A01B7
:100020000C945A010C945A010C945A010C945A01E4
:100030000C945A010C945A010C945A010C945A01D4
:100040000C94250D0C945A010C945A010C945A01ED
:100050000C94210C0C94DF0B0C945A010C945A0153
:100060000C9423050C945A010C945A010C945A01D7
:100070000C945A010C945A010C945A014702FA014B
:10008000FA01FA0147021A021A023A02A503A8036A
:10009000A803A803A503AC03AC03B00343757272B5
:1000A000656E742053636F72652025690043757215
:1000B00072656E74204C69766573202569004375FE
:1000C0007272656E74204C6576656C2025690059E6
:1000D0006F752062656174207468652067616D6565
:1000E0002100436F6E67726174756C6174696F6E25
:1000F00073005072657373206120627574746F6E43
:1001000020746F20737461727420616761696E007E
:1001100047414D45204F56455200202020202020A9
:10012000202020202020202020202020200050617E
:10013000757365642E2E2E20202020202020202064
:10014000202020202020200050726F6A65637420D8
:100150006279204D6172637573204368616E204A35
:10016000756E20486F6E672034353035373337373A
:100170000046726F676765720053636F72653A205D
:10018000256900EE01EB01E701E301DF01DB01D7A7
:1001900001D301CF01CB015D025902550251024D3D
:1001A000024902450241023E023A02360232022D63
:1001B000022902250221021C02180214020F020B5E
:1001C0000206020102FC01F701F2016492927D6CC9
:1001D00092926D809EA0C17C92924DE4A2A29D1845
:1001E0002848FF4492926D468A926342FE037C92B5
:1001F000A27D868A92A2C3E0100E10E1C6281028C4
:10020000C7FC021C02FDF8040204F9FC0202FD8096
:1002100080FE80816492924DFE9098677C828A7CF9
:1002200003FE9090617C82827DFE2010FFFE4030B4
:1002300040FFFE020203FE1028C7040202FD82FEF8
:1002400083FE1010FF7C82925DFE909081FE929260
:1002500083FE82827D7C828245FE92926D7E9090AA
:100260007F1B5B25646D001B5B324A001B5B306D9E
:10027000001B5B25643B2564480011241FBECFEFA3
:10028000D8E0DEBFCDBF11E0A0E0B1E0E8E0F4E2ED
:1002900002C005900D92A438B107D9F722E0A4E876
:1002A000B1E001C01D92A93CB207E1F70E94F50937
:1002B0000C9402120C940000E8E6F0E08081826069
:1002C0008083D99AECE6F0E080818F608083109281
:1002D000840108958091840118163CF58091850170
:1002E0006FB7F894909184019230B4F021E030E03F
:1002F00091E0F901EB57FE4F4081F901EC57FE4FB9
:1003000040839F5F292F30E040918401042E000C30
:10031000550B241735076CF39091840191509093FD
:10032000840166231CF4789408958FEF08951F923A
:100330000F920FB60F9211242F933F934F935F9319
:100340006F937F938F939F93EF93FF9343B14F707E
:1003500080E090E0642F70E020918401243004F567
:100360009B01082E02C0359527950A94E2F720FFDD
:1003700017C02091890130E0082E02C035952795DD
:100380000A94E2F720FD0CC0E091840121E02E0FD9
:10039000209384010E2E000CFF0BEB57FE4F808341
:1003A000019684309105C1F640938901FF91EF9148
:1003B0009F918F917F916F915F914F913F912F917D
:1003C0000F900FBE0F901F9018950F93262F60313E
:1003D00008F05BC0482F082E000C550B660B770BFE
:1003E0004830510528F4FA01E25CFF4F0C943D0EB1
:1003F00081E04EC08150E82FF0E0DF01A057BE4FF2
:100400000C91020F003408F00054EE0FFF1FEE0FA6
:10041000FF1FEE0FFF1FE95DFE4F208131814281FA
:10042000538164817581868197810E94540E822F49
:1004300081702EC0855090E0FC01E257FE4F608134
:10044000260F203208F02052880F991F880F991F1D
:10045000FC01E15EFE4F80819181A281B38104C0E5
:10046000B695A795979587952A95D2F721E082278B
:1004700081700EC080918A0190918B0102C0969587
:1004800087952A95E2F7817003C081E001C080E082
:100490000F910895CF93DF93CDB7DEB760970FB676
:1004A000F894DEBF0FBECDBFFE0131969E012F5ED8
:1004B0003F4F91E19193E217F307E1F7BE016F5FC0
:1004C0007F4F0E94A60560960FB6F894DEBF0FBE60
:1004D000CDBFDF91CF9108953F924F925F926F927F
:1004E0007F928F929F92AF92BF92CF92DF92EF92C4
:1004F000FF920F931F93CF93DF93CDB7DEB7609733
:100500000FB6F894DEBF0FBECDBF482E282F30E0C7
:10051000F901E057FE4FE081C901880F991F880F4C
:10052000991F880F991F895D9E4FDC015C90119681
:100530006C90119712967C90129713968C9013974B
:1005400014969C90149715961C91159716963C90AE
:1005500016971796FC91CE0101967C016E0191E1F0
:10056000C90ED11CD901A050BF4F5D01252D362DDC
:10057000472D582D692D712F832D9F2F0E2F0E94EF
:10058000540E217030E040E050E060E070E080E028
:1005900090E0A0E00E94700E29F0D5018C91D70167
:1005A0008C9302C0D7011C92EF5FE03408F0E0E0CA
:1005B000BFEFEB1AFB0AEC14FD04C1F6BE016F5F3E
:1005C0007F4F81E0840D0E94A60560960FB6F894D7
:1005D000DEBF0FBECDBFDF91CF911F910F91FF9076
:1005E000EF90DF90CF90BF90AF909F908F907F90D3
:1005F0006F905F904F903F900895CF92DF92EF926F
:10060000FF92CF93DF93CDB7DEB760970FB6F89424
:10061000DEBF0FBECDBF282F30E0F901E257FE4FFD
:100620009081220F331F220F331FF901E15EFE4F2D
:10063000C080D180E280F380FE0131969E012F5E62
:100640003F4FACE3B701A601092E04C0769567952C
:10065000579547950A94D2F740FF02C0A08301C086
:1006600010829F5F903208F090E03196E217F30716
:1006700049F7BE016F5F7F4F8B5F0E94A6056096B2
:100680000FB6F894DEBF0FBECDBFDF91CF91FF90C4
:10069000EF90DF90CF900895EF92FF920F931F930A
:1006A000CF93DF93CDB7DEB760970FB6F894DEBF78
:1006B0000FBECDBFA0918C01B0918D01E0908A0159
:1006C000F0908B01AE014F5F5F4FBE016F5E7F4FB9
:1006D000FA0100EF11E1CF01841B950B9D01082E5B
:1006E00002C0369527950A94E2F720FF02C01083D6
:1006F0000BC0970102C0369527958A95E2F720FF37
:1007000002C0008301C010823196E617F70719F77F
:10071000BE016F5F7F4F87E00E94A60560960FB60F
:10072000F894DEBF0FBECDBFDF91CF911F910F9127
:10073000FF90EF900895482F50E04830510590F415
:10074000FA01EA5BFF4F0C943D0E0E944A020895A5
:1007500081500E946C02089585500E94FD02089508
:100760000E944C03089580919301882341F045E352
:1007700060919501809194010E948705089540EF52
:1007800060919501809194010E94870508951092CF
:10079000950187E080939401109293010E94B30326
:1007A0000895E0E9F1E0128211821082EEE8F1E0B2
:1007B000118210828DED9DED90938D0180938C01BF
:1007C00090938B0180938A010E94E70580E00E944C
:1007D0004A0284E00E944A0280E00E946C0281E0AA
:1007E0000E946C0282E00E946C0280E00E94FD0286
:1007F00081E00E94FD020E944C030E94C7030895FD
:10080000CF93809195010E949B03C0919501CF5F8A
:10081000609194018C2F0E94E50180939301C09315
:1008200095010E94B3038091930181111CC08091B6
:1008300095018730C1F481E090E00090940102C0FE
:10084000880F991F0A94E2F720918A0130918B0159
:10085000822B932B90938B0180938A018AE090E006
:100860000E94190A04C081E090E00E94190ACF9109
:100870000895CF93809195010E949B03C0919501AB
:10088000C150609194018C2F0E94E50180939301E7
:10089000C09395010E94B303CF910895CF938091A7
:1008A00095010E949B03C0919401C1506C2F8091CF
:1008B00095010E94E50180939301C09394010E94E9
:1008C000B303CF910895CF93809195010E949B032C
:1008D000C0919401CF5F6C2F809195010E94E5013A
:1008E00080939301C09394010E94B303CF91089524
:1008F00081E020918A0130918B012F3F3F4F09F019
:1009000080E0089581E090919501973009F080E0B2
:10091000089580919301089581E080939301089553
:100920000F931F93CF93DF93C09195010C2E000C72
:10093000DD0B282F30E089010F5F1F4FF901E057D1
:10094000FE4F9081961B32F4F901E057FE4F9FE372
:1009500090830BC090342CF4F901E057FE4F908344
:1009600004C0F901E057FE4F10820E946C02C017CC
:10097000D10751F460919401809195010E94E501A5
:10098000809393010E94B303DF91CF911F910F9148
:1009900008950F931F93CF93DF93C09195010C2E71
:1009A000000CDD0B282F30E089010B5F1F4FC017B3
:1009B000D107C9F4613041F4909194019F3071F4F2
:1009C00091E0909393010FC06F3F41F49091940197
:1009D000911104C091E09093930105C0909194010E
:1009E000960F90939401F901E257FE4F9081961B68
:1009F00032F4F901E257FE4F9FE190830BC0903231
:100A00002CF4F901E257FE4F908304C0F901E2573C
:100A1000FE4F10820E94FD02C017D10711F40E9400
:100A2000B303DF91CF911F910F91089580E48093DC
:100A30007C00EAE7F0E086E8808380838FEF81B96D
:100A40001092960108951F920F920FB60F921124E3
:100A50002F933F934F935F936F937F938F939F93C6
:100A6000AF93BF93EF93FF93EAE7F0E0808186FDB9
:100A7000FDCF80917800909179002091970121110C
:100A80000DC09F938F938FE391E09F938F930E946C
:100A9000DC0E0F900F900F900F900CC09F938F93D0
:100AA00087E491E09F938F930E94DC0E0F900F904C
:100AB0000F900F909091970181E089278093970183
:100AC000811106C0ECE7F0E080818E7F808305C055
:100AD000ECE7F0E0808181608083EAE7F0E08081EC
:100AE00080648083FF91EF91BF91AF919F918F912F
:100AF0007F916F915F914F913F912F910F900FBE1A
:100B00000F901F90189580E80E94740C08951F9311
:100B1000CF93DF938031B0F46830A0F4142FC62F48
:100B2000D82F81E00E949C0C6C2F677080E1689F39
:100B3000900111248D2F8F70822B0E949C0C812F8D
:100B40000E949C0CDF91CF911F9108950F931F93EA
:100B5000CF93DF93883090F48B01C82F82E00E94FE
:100B60009C0C8C2F87700E949C0CE801005F1F4F2B
:100B700089910E949C0CC017D107D1F7DF91CF91CA
:100B80001F910F9108950F931F93CF93DF9380319F
:100B900090F48B01C82F83E00E949C0C8C2F8F70E7
:100BA0000E949C0CE801085F1F4F89910E949C0CD9
:100BB000C017D107D1F7DF91CF911F910F91089501
:100BC00084E00E949C0C82E00E949C0C08958FE0BF
:100BD0000E949C0C089580910301089581E09091FA
:100BE0000301911180E0089580910301811101C0FA
:100BF00012B880910301813011F480E882B98091AC
:100C00000301823011F480EC82B9809103018330BA
:100C100011F480EE82B980910301843011F480EFE9
:100C200082B9089580EF81B90E94F40508958091FA
:100C300003018150809303010E94F405089580917F
:100C40000301843018F48F5F809303010E94F40540
:100C500008950E9483050E945C010E94160540E0F1
:100C600060E07BE480E090E00E948C0B0E94F80C36
:100C7000789408950E94BC0C6AE070E08AE090E0ED
:100C80000E94A20C81E791E09F938F930E94F20E45
:100C90006CE070E08AE090E00E94A20C88E491E0B1
:100CA0009F938F930E94F20E0E94E7050F900F9082
:100CB0000F900F9060EF8FE491E00E94550A0DC0F5
:100CC0002FE789EA93E0215080409040E1F700C08F
:100CD00000000E946A018F3F29F40E94640A81117A
:100CE000EFCFE8CF089510929901109298010E94D9
:100CF000BC0C0E94100A0E9412060E946A010E9407
:100D0000DA0B089581E0809398010E94E7050E9424
:100D1000100D0E94BC0C6EE070E08AE090E00E9432
:100D2000A20C80E191E09F938F930E94F20E6FE0FE
:100D300070E08AE090E00E94A20C82EF90E09F9326
:100D40008F930E94F20E0F900F900F900F906FE014
:100D500080E691E00E94550A0BC02FE789EA93E0F4
:100D6000215080409040E1F700C000000E946A01DD
:100D70000E94640A8111F1CFEACF0E94BC0C6EE0A0
:100D800070E08AE090E00E94A20C82EE90E09F93D7
:100D90008F930E94F20E6FE070E08AE090E00E9474
:100DA000A20C8FEC90E09F938F930E94F20E0F9015
:100DB0000F900F900F906FE08AE691E00E94550A25
:100DC0000BC02FE78AE196E0215080409040E1F788
:100DD00000C000000E946A010E94640A8111F1CFE4
:100DE000EACF0E94BC0C6DE070E08AE090E00E94C7
:100DF000A20C809199011F928F938EEB90E09F93AC
:100E00008F930E94F20E6EE070E08AE090E00E9404
:100E1000A20C0E94EB051F928F938DEA90E09F93A6
:100E20008F930E94F20E6FE070E08AE090E00E94E3
:100E3000A20C0E944C0A9F938F937F936F938CE92F
:100E400090E09F938F930E94F20E8DB79EB70E96FF
:100E50000FB6F8949EBF0FBE8DBF08952F923F929C
:100E60004F925F926F927F928F929F92AF92BF92BA
:100E7000CF92DF92EF92FF920F931F93CF93DF9366
:100E8000CDB7DEB763970FB6F894DEBF0FBECDBF08
:100E90000E94D20C80919901825F0E94030D0E94F2
:100EA000EA0C4B015C0180910401909105019827A7
:100EB0008927809304018927809305018D869E866A
:100EC000AF86B88A89869A86AB86BC868D829E82DA
:100ED000AF82B88689829A82AB82BC82198A0F2E31
:100EE000FEE22F2EF1E03F2EF02D0FEF12E30F2E3A
:100EF000FEEE4F2EF2E05F2E612C712CF02DA6C17C
:100F00000E94890481110BC00E948204882339F059
:100F100080919901825F0E94030D0E94C7030E9485
:100F20001C0D882349F00E948C040E94F1068091D8
:100F30009901825F0E94030D0E948904882359F061
:100F40000E9417060E94F10680919901825F0E941B
:100F5000030D0E94C7030E946A018B8B8F3F19F516
:100F60000E94D30B882309F1E3ECF2E080819181A8
:100F70000E949E0E8A8BF989F11106C08B31C1F453
:100F800021E0298B0A8B14C03989313039F44A8920
:100F90004B3569F452E0598B0A8B0AC0898982303B
:100FA00009F460C166C10A8B03C00A8B01C0198AAB
:100FB00080919A01811172C19B89933049F08A898D
:100FC0008F7D8C3441F404C0198A0A8B01C0198AC0
:100FD0000E944E041FC0EB89E23029F0902F91341B
:100FE00011F0853519F40E94000414C0FB89F1301A
:100FF00021F0923411F0843419F40E9439040AC0AB
:101000002B89222329F0933419F0823509F03EC14F
:101010000E9463043A89303721F04A89403509F04B
:1010200044C080919A0191E0811190E090939A01DF
:1010300081111DC00E94190D83E20E94C50C81E040
:101040000E94C50C60E170E08AE090E00E94A20C72
:101050003F922F920E94F20E0E94B30C61E170E069
:101060008AE090E00E94A20C0F900F901EC00E9498
:10107000150D83E20E94C50C81E00E94C50C60E161
:1010800070E08AE090E00E94A20C8AE191E09F93D8
:101090008F930E94F20E0E94B30C61E170E08AE02F
:1010A00090E00E94A20C0F900F900E94EA0C6B013E
:1010B0007C010E9489048111C9C080919A0181112B
:1010C000C5C080919901189FC0011124092E000C00
:1010D000AA0BBB0BA3019201281B390B4A0B5B0B1C
:1010E000DA01C901880D991DAA1DBB1DC816D906B4
:1010F000EA06FB0638F06091050180E00E94C90411
:101100004601570180919901189FC0011124092EB1
:10111000000CAA0BBB0B26EB33E040E050E0281B91
:10112000390B4A0B5B0BDA01C90129813A814B81EA
:101130005C81820F931FA41FB51FC816D906EA064B
:10114000FB0648F06091040181E00E94C904C98255
:10115000DA82EB82FC8280919901189FC0011124F0
:10116000092E000CAA0BBB0B2EE734E040E050E048
:10117000281B390B4A0B5B0BDA01C9012D813E811B
:101180004F815885820F931FA41FB51FC816D9061B
:10119000EA06FB0648F06091040180E00E9490049A
:1011A000CD82DE82EF82F88680919901189FC0017E
:1011B0001124092E000CAA0BBB0B20EB34E040E0FD
:1011C00050E0281B390B4A0B5B0BDA01C90129855A
:1011D0003A854B855C85820F931FA41FB51FC816E7
:1011E000D906EA06FB0648F06091050181E00E94FD
:1011F0009004C986DA86EB86FC8680919901189F57
:10120000C0011124092E000CAA0BBB0B28EE33E001
:1012100040E050E0281B390B4A0B5B0BDA01C90197
:101220002D853E854F855889820F931FA41FB51FBA
:10123000C816D906EA06FB0648F06091040182E070
:101240000E949004CD86DE86EF86F88A0E94EE0525
:10125000811105C00E947804882309F451CE0E94B0
:1012600078044CC080919A018823E1F0198A0A8B96
:10127000D4CE80919A0181112FC01DC081E0909140
:101280009A01911180E080939A01D4CE3A89303747
:1012900009F0C3CEF3CF10929A01E9CE4A894037C4
:1012A00041F5F9CF5A89543409F48ECE952F198A15
:1012B0000A8B8FED94CE8A898F7D8C3409F487CE8A
:1012C000198A902F8ECE81E090919A01911180E041
:1012D00080939A01198ACBCE8A898037A1F3198A23
:1012E0009CCE81E090919A01911180E080939A01C7
:1012F000BECE9A89903509F0D8CEF3CF63960FB65B
:10130000F894DEBF0FBECDBFDF91CF911F910F913B
:10131000FF90EF90DF90CF90BF90AF909F908F9015
:101320007F906F905F904F903F902F9008950F9314
:101330001F93CF93DF93CDB7DEB728970FB6F894FE
:10134000DEBF0FBECDBF0E94100D809199018F5F4F
:1013500080939901823010F00E941F0680919901BC
:101360008B3010F00E94BD060E94F1068091990119
:101370001F928F938AE791E09F938F938E010F5F67
:101380001F4F1F930F930E94180F6FE0C8010E9418
:10139000550A0F900F900F900F900F900F900BC069
:1013A0002FEB84ED91E0215080409040E1F700C0A8
:1013B00000000E946A010E94640A8111F1CF2FEFA0
:1013C00089E698E1215080409040E1F700C000009C
:1013D0000E94D10328960FB6F894DEBF0FBECDBF92
:1013E000DF91CF911F910F9108950E9429060E94CD
:1013F0003A060E9473060DC00E94EE0581110E94FC
:1014000082060E94EE05811104C00E9497090E9485
:101410002E0780919801882379F380E090E0089569
:101420001092AB011092AC011092AD011092AE017E
:1014300008954091AB015091AC016091AD01709164
:10144000AE01480F591F611D711D4093AB015093B0
:10145000AC016093AD017093AE0161E070E088E48F
:1014600090E00E94A20C8091AE018F938091AD011B
:101470008F938091AC018F938091AB018F9389E71B
:1014800091E09F938F930E94F20E0F900F900F9018
:101490000F900F900F9008956091AB017091AC0187
:1014A0008091AD019091AE010895609306019093F3
:1014B0009F0180939E011092A1011092A0011092B1
:1014C0009D0110929C0108950F931F93CF93DF937A
:1014D000CDB7DEB728970FB6F894DEBF0FBECDBFED
:1014E000E091A001F091A101309781F0149110FFDB
:1014F00006C01092A1011092A00100E06BC03196CD
:10150000F093A101E093A00100E064C0E0919C0190
:10151000F0919D01309709F449C0CF010196909355
:101520009D0180939C01E081E1110AC010929D0110
:1015300010929C0180E180939B0100E010E04AC082
:101540008FE98E0F8A3170F4F0E0EE0FFF1FEB523F
:10155000FF4F859194919093A1018093A00100E0A9
:1015600010E038C08FEB8E0F8A3170F4F0E0EE0F90
:10157000FF1FEB5EFE4F859194919093A1018093A4
:10158000A00100E010E026C080ED8E0F8A3000F54B
:10159000F0E0EE0FFF1FED5DFE4F8591949190936B
:1015A000A1018093A00100E010E014C080919E0191
:1015B00090919F0101E0009709F000E090939D0158
:1015C00080939C0110929F0110929E0110E002C036
:1015D00000E010E00E94E00520910601FE0138962F
:1015E000CE010196112314F4208301C01082110F43
:1015F0003197E817F907B1F71982BE016F5F7F4F86
:101600008FE00E94C30580919B01882389F081505F
:1016100080939B01002311F0882311F090E003C018
:1016200091E001C091E081E0992329F080E003C0BE
:101630000023A1F3F7CF28960FB6F894DEBF0FBEB4
:10164000CDBFDF91CF911F910F910895CF93C82FF8
:101650008A3019F48DE00E94260B9FB7907802C063
:10166000992329F18091B0018F3FD1F3F894E09153
:10167000AF0181E08E0F8093AF01F0E0EF54FE4F99
:10168000C0838091B0018F5F8093B0018091AF01E2
:101690008F3F11F41092AF01E1ECF0E080818062A5
:1016A0008083992339F0789480E090E005C081E050
:1016B00090E002C080E090E0CF9108958091C20256
:1016C0008823E1F32FB72078F8948091B00230910D
:1016D000C20290E0831B91095AF4E091B00280911C
:1016E000C202F0E0E81BF109EF53FD4F80810AC010
:1016F000E091B0028091C202F0E0E81BF109EF54E2
:10170000FD4F80819091C20291509093C20222239A
:1017100009F0789490E008951092AF011092B00112
:101720001092B0021092C2021092C1024093A20124
:10173000DC01CB01880F991FAA1FBB1F880F991FBF
:10174000AA1FBB1F9C01AD01220F331F441F551F51
:1017500060E072E18AE790E00E941E0EBA01A901E2
:101760004F5F5F4F6F4F7F4FDB01CA011AF4019645
:10177000A11DB11DB595A795979587950197909354
:10178000C5008093C400E1ECF0E088E180838081B3
:1017900080688083E3ECF2E087E091E093838283CA
:1017A0009183808308959091C20281E0911101C0DC
:1017B00080E008951092B0021092C20208951F9224
:1017C0000F920FB60F9211242F938F939F93EF9345
:1017D000FF938091B001882329F18091AF0120917E
:1017E000B00190E0821B91095AF4E091AF01809121
:1017F000B001F0E0E81BF109E055FD4F90810AC00F
:10180000E091AF018091B001F0E0E81BF109EF54E5
:10181000FE4F90818091B00181508093B0019093F0
:10182000C60005C0E1ECF0E080818F7D8083FF91F0
:10183000EF919F918F912F910F900FBE0F901F905E
:1018400018951F920F920FB60F9211242F933F936A
:101850004F935F936F937F938F939F93AF93BF93B8
:10186000CF93EF93FF93C091C6008091A20188238C
:1018700049F08091B0018F3F29F060E070E08C2F3B
:101880000E94260B8091C202803120F081E080937B
:10189000C10218C0CD3009F4CAE0E091B00281E085
:1018A0008E0F8093B002F0E0EF54FD4FC083809123
:1018B000C2028F5F8093C2028091B002803111F426
:1018C0001092B002FF91EF91CF91BF91AF919F9194
:1018D0008F917F916F915F914F913F912F910F90D9
:1018E0000FBE0F901F90189594B1906B94B92C9ADD
:1018F00090E59CBD883021F0803211F0823019F4DF
:1019000091E09DBD01C01DBC803269F028F4883093
:1019100071F0803161F00EC0803429F0803851F4CC
:101920008CB581608CBD8CB582608CBD03C08CB5DC
:1019300081608CBD2C9808958EBD0DB407FEFDCF3F
:101940008EB508959F938F937F936F9381E792E075
:101950009F938F930E94F20E0F900F900F900F9015
:101960000F900F9008958CE692E09F938F930E94C2
:10197000F20E0F900F90089587E692E09F938F9359
:101980000E94F20E0F900F9008951F928F9381E6A0
:1019900092E09F938F930E94F20E0F900F900F9002
:1019A0000F9008951092A6011092A7011092A8011D
:1019B0001092A90116BC8CE787BD82E084BD83E04C
:1019C00085BDEEE6F0E080818260808385B3827021
:1019D00085BB08952FB7F8946091A6017091A70177
:1019E0008091A8019091A90122230CF47894089584
:1019F0008FEF87B9529A1092A5011092A40181E04D
:101A00008093AA01089528EE33E0482F429FC00139
:101A1000439F900D11249093A5018093A4010895F4
:101A20001092A5011092A401089581E08093AA016B
:101A300008951092AA0108952091A4013091A50162
:101A400081E0232B09F080E008951F920F920FB6DA
:101A50000F9211242F933F934F935F936F937F9334
:101A60008F939F93AF93BF93EF93FF938091AA01BE
:101A7000882399F08091A6019091A701A091A801D7
:101A8000B091A9010196A11DB11D8093A60190936B
:101A9000A701A093A801B093A9018091AA0188236E
:101AA00079F08091A4019091A501892B49F0809152
:101AB000A4019091A50101979093A5018093A401A1
:101AC0009091A30181E089278093A3018091A401D3
:101AD0009091A501892B09F49FC02091A401309118
:101AE000A50128513C4F8091A30181115FC08091D5
:101AF000A4019091A501893E934078F136952795F0
:101B00003695279536952795A5ECB0E20E94430EB1
:101B1000AC01529542954F7045275F7045279A0159
:101B2000ADECBCEC0E94430E9695879596958795F3
:101B3000969587959C01220F331F880F991F880F58
:101B4000991F880F991F820F931F481B590BFA0189
:101B5000EB5EFE4F808188B957C036952795369544
:101B60002795ABE7B4E10E94430EAC01569547952B
:101B70009A01ADECBCEC0E94430E96958795969524
:101B80008795969587959C01220F331F880F991F83
:101B9000880F991F880F991F820F931F481B590B9D
:101BA000FA01EB5EFE4F808188B92EC08091A301BF
:101BB000813051F58091A4019091A5018932934221
:101BC000B0F0329522952F7023273F702327A7E48A
:101BD000B3E00E94430E96958795969587959695C6
:101BE0008795FC01EB5EFE4F808188B90DC0809126
:101BF000A4019091A501883E934028F4809115019D
:101C000088B9479A01C018B88091A301882311F0C0
:101C10005A9A03C05A9801C018B8FF91EF91BF912A
:101C2000AF919F918F917F916F915F914F913F9174
:101C30002F910F900FBE0F901F901895052E97FBB8
:101C40001EF400940E94350E57FD07D00E947C0EB2
:101C500007FC03D04EF40C94350E5095409530950A
:101C600021953F4F4F4F5F4F089590958095709508
:101C700061957F4F8F4F9F4F0895EE0FFF1F059087
:101C8000F491E02D0994A29FB001B39FC001A39FDE
:101C9000700D811D1124911DB29F700D811D1124A5
:101CA000911D089597FB10F8169400080F930830C3
:101CB00098F00850232F342F452F562F672F782F59
:101CC000892F902DF4CF05949795879577956795F3
:101CD00057954795379527950A95AAF70F91089537
:101CE0000024A7FD00942A17300540055005600523
:101CF0007005800590050895A1E21A2EAA1BBB1B52
:101D0000FD010DC0AA1FBB1FEE1FFF1FA217B307C7
:101D1000E407F50720F0A21BB30BE40BF50B661FDD
:101D2000771F881F991F1A9469F7609570958095A1
:101D300090959B01AC01BD01CF010895CF93DF9336
:101D4000EC012B8120FF33C026FF0AC02F7B2B83A1
:101D50008E819F8101969F838E838A8190E029C026
:101D600022FF0FC0E881F9818081082E000C990BB9
:101D7000009719F420622B831AC03196F983E88307
:101D80000EC0EA85FB85099597FF09C02B81019656
:101D900011F080E201C080E1822B8B8308C02E818C
:101DA0003F812F5F3F4F3F832E83992702C08FEFE4
:101DB0009FEFDF91CF910895A0E0B0E0E2EEFEE06A
:101DC0000C94DB11AE014B5F5F4FFA016191719191
:101DD000AF018091C5029091C6020E943A0FE2E0E5
:101DE0000C94F711A0E0B0E0E8EFFEE00C94D911FC
:101DF000AE01495F5F4FDA016D917D91AD0103EC5A
:101E000012E0F80182819381DC0113962C911397E3
:101E1000286013962C930E943A0FD8011296ED91E8
:101E2000FC9113972381277F2383E4E00C94F51121
:101E3000AEE0B0E0EEE1FFE00C94D9110D891E890F
:101E400086E08C831A8309838FEF9FE79E838D83BF
:101E5000AE01475E5F4F6F89788DCE0101960E947B
:101E60003A0FEF81F885E00FF11F10822E96E4E023
:101E70000C94F511ABE0B0E0E0E4FFE00C94CB1182
:101E80006C017B018A01FC0117821682838181FF2C
:101E9000CCC1CE0101963C01F6019381F70193FD7F
:101EA000859193FF81917F01882309F4BAC185321E
:101EB00039F493FD859193FF81917F01853229F457
:101EC000B60190E00E943111E7CF912C212C312CEA
:101ED000FFE1F315D8F08B3279F038F4803279F0E5
:101EE0008332A1F4232D20611DC08D3261F0803337
:101EF00069F4232D216016C0832D8260382EE32DD6
:101F0000E4603E2E2AC0F32DF8601DC037FC2DC0C2
:101F100020ED280F2A3040F08E32B9F436FC81C112
:101F2000232D2064322E19C036FE06C08AE0989E0A
:101F3000200D1124922E11C0EAE02E9E200D1124B6
:101F4000222EF32DF0623F2E08C08C3621F4832D13
:101F50008068382E02C0883641F4F70193FD8591E0
:101F600093FF81917F018111B3CF982F9F7D95546D
:101F7000933028F40C5F1F4F9FE399830DC0833685
:101F800031F0833771F0833509F059C021C0F80171
:101F9000808189830E5F1F4F88248394912C530185
:101FA00013C02801F2E04F0E511CF801A080B1804F
:101FB00036FE03C0692D70E002C06FEF7FEFC501F0
:101FC0000E9426114C018201F32DFF773F2E16C08F
:101FD000280122E0420E511CF801A080B18036FE9B
:101FE00003C0692D70E002C06FEF7FEFC5010E9452
:101FF0001B114C01F32DF0683F2E820133FC1BC0F6
:10200000822D90E088169906B0F4B60180E290E047
:102010000E9431112A94F4CFF50137FC859137FEE7
:1020200081915F01B60190E00E94311121102A9444
:1020300021E0821A91088114910471F7E8C0843676
:1020400011F0893641F5F80137FE07C060817181D2
:10205000828193810C5F1F4F08C060817181072EC0
:10206000000C880B990B0E5F1F4FF32DFF763F2E50
:1020700097FF09C090958095709561957F4F8F4F20
:102080009F4FF0683F2E2AE030E0A3010E946D11BF
:10209000882E861845C0853731F4232D2F7EB22E29
:1020A0002AE030E025C0932D997FB92E8F36C1F0FC
:1020B00018F4883579F0B5C0803719F0883721F0E9
:1020C000B0C0E92FE061BE2EB4FE0DC0FB2DF46060
:1020D000BF2E09C034FE0AC0292F2660B22E06C0CA
:1020E00028E030E005C020E130E002C020E132E02D
:1020F000F801B7FE07C060817181828193810C5F16
:102100001F4F06C06081718180E090E00E5F1F4F1D
:10211000A3010E946D11882E8618FB2DFF773F2E9C
:1021200036FE0DC0232D2E7FA22E891458F434FEC6
:102130000BC032FC09C0832D8E7EA82E05C0B82CA2
:10214000A32C03C0B82C01C0B92CA4FE0FC0FE0103
:10215000E80DF11D8081803321F49A2D997EA92EFE
:1021600009C0A2FE06C0B394B39404C08A2D867839
:1021700009F0B394A3FC11C0A0FE06C0B21488F409
:10218000280C922C9B180EC0B21460F4B60180E2A9
:1021900090E00E943111B394F7CFB21418F42B18C9
:1021A00002C0982C212CA4FE10C0B60180E390E060
:1021B0000E943111A2FE17C0A1FC03C088E790E085
:1021C00002C088E590E0B6010CC08A2D867859F0EF
:1021D000A1FE02C08BE201C080E2A7FC8DE2B60145
:1021E00090E00E943111891438F4B60180E390E048
:1021F0000E9431119A94F7CF8A94F301E80DF11DF2
:102200008081B60190E00E9431118110F5CF22202B
:1022100009F442CEB60180E290E00E9431112A9486
:10222000F6CFF6018681978102C08FEF9FEF2B9644
:10223000E2E10C94E711FC0105906150704001103F
:10224000D8F7809590958E0F9F1F0895FC016150DF
:10225000704001900110D8F7809590958E0F9F1FC8
:1022600008950F931F93CF93DF93FB01238121FDEB
:1022700003C08FEF9FEF2CC022FF16C0468157810D
:10228000248135814217530744F4A081B1819D0117
:102290002F5F3F4F318320838C93268137812F5FBF
:1022A0003F4F3783268314C08B01EC01FB01008470
:1022B000F185E02D0995892BE1F6D80116968D91CF
:1022C0009C911797019617969C938E931697CE0123
:1022D000DF91CF911F910F910895FA01AA2728301D
:1022E00051F1203181F1E8946F936E7F6E5F7F4FE3
:1022F0008F4F9F4FAF4FB1E03ED0B4E03CD0670F5F
:10230000781F891F9A1FA11D680F791F8A1F911DB1
:10231000A11D6A0F711D811D911DA11D20D009F401
:1023200068943F912AE0269F11243019305D319343
:10233000DEF6CF010895462F4770405D4193B3E02C
:102340000FD0C9F7F6CF462F4F70405D4A3318F0D3
:10235000495D31FD4052419302D0A9F7EACFB4E084
:10236000A6959795879577956795BA95C9F700973C
:102370006105710508959B01AC010A2E06945795DD
:10238000479537952795BA95C9F7620F731F841F34
:10239000951FA01D08952F923F924F925F926F92CA
:1023A0007F928F929F92AF92BF92CF92DF92EF92E5
:1023B000FF920F931F93CF93DF93CDB7DEB7CA1B66
:1023C000DB0B0FB6F894DEBF0FBECDBF09942A8891
:1023D000398848885F846E847D848C849B84AA8439
:1023E000B984C884DF80EE80FD800C811B81AA81C6
:1023F000B981CE0FD11D0FB6F894DEBF0FBECDBF91
:08240000ED010895F894FFCFEF
:102408000FDF0F0301FF0F0000000300000000268C
:102418000B5E0B00003F065B4F666D7D077F6FF814
:10242800789CF19C1DF6E698C118C398C118C31C86
:102438000EC7E170703838C7C3070F0F0F0F0F585A
:102448003A202534642000593A202534640A00468D
:10245800726F676765722034353035373337370028
:1024680047414D45204F56455200436F6E67726194
:1024780074756C6174696F6E21004C4556454C202B
:0424880025690000C2
:00000001FF
